:020000040000fa
:080000000002040000000000f2
:020000040000fa
:10040000ef0e21000e5f24000e01880000000000a6
:100410000c00070000802500010020001f000700dd
:10042000000020000000e000020032000000020096
:1004300000000000ba4b0200000000000040da009b
:100440000000fe004440a900602420000000e000fd
:100450000300320000002000a00188004440a800f2
:1004600000000600f03fb1000180b1000600350039
:10047000ee03090000000000403fb1000180b10020
:10048000fbff3d001000b000203fb000020035002f
:1004900000800900000000000000060091018800b3
:1004a000800078000000eb0015003700e28040007b
:1004b00032a0b4009101ba00e280400032a0b40042
:1004c0009102ba00e280400032a0b4000002eb00ca
:1004d000472bde00f507b200602ce10004003a0073
:1004e0000059eb008301e900fdff3e0004003700e6
:1004f0006128e100010032000082eb0004000700e7
:100500001101ba000200e000e8ff3a000000060016
:100510003159ba008301e9000c0032002159ba00b8
:100520008301e900080032000400e00003003a0003
:10053000e280400032a0b400f5ff370011d9ba00c4
:100540008301e900faff3a008100e800e180400001
:1005500032a0b4000000060000000000000000000f
:100560000040da000000fe003200f800023b880084
:10057000910188000008bb000500fc005105200027
:10058000313b8800a10a2000313b880061e7a800c8
:1005900000000000000000003200f900000006002a
:1005a0000400a100010037000400a0003200f800a0
:1005b0009101880011002400013b8800f10f200008
:1005c0003208bb000400a700b20078000198bb000d
:1005d0008301e900faff3a00680151000400a70016
:1005e00068015100680050001208bb00e2ff3700ac
:1005f000f30f20003200f800910188003100240040
:10060000013b88000208bb000388bb00daff37000b
:100610003200f800003b8800d7ff37003200f800b6
:10062000910188008002780062004000e08048006c
:100630003549ba003204e0000410a700100032006f
:100640008301e9000e0032002549ba003204e000bf
:100650000410a7000a0032008301e90008003200fc
:100660000408a300eeff320015c9ba003204e0000e
:100670000410a700020032008301e900e8ff3a00fd
:100680003200f900000006006900e10004003500b6
:100690006d00e100030034000002b10001003200ef
:1006a00000000500100005001004b1000300350033
:1006b0009001b10001003c001000050000000500a1
:1006c000800078001104b100030035009101b100f1
:1006d00001003c000050a000000006001004b10022
:1006e000070035009001b100040034007000b10033
:1006f000030035009001b10001003c00100005002e
:10070000000005000a00fa00e20f500021003e0040
:1007100030378200e10f50000600320085232000b0
:10072000442320002323200000232000e08f5200d8
:1007300004003a00852220004422200023222000c9
:1007400000222000060028009003630002003a0007
:10075000870a780010087300004020001300600032
:1007600001003a0013a0a000020078000600370044
:10077000930278000510b200fdff3200b102fb00c9
:10078000050a78000000e900e00f5000f8ff3a0089
:100790000800370033002000b3bf9f00c0bf9f0098
:1007a000d1bf9f00e2bf9f006a80570000c0da00ff
:1007b0006fb99700020078000080fa000000060080
:1007c0000a00fa00e00f500026003a00303782009d
:1007d000e10f500006003200802320006523200036
:1007e0002423200003232000e00f500004003a00df
:1007f00080222000652220002422200003222000e5
:10080000060028009303630002003a0007087800fe
:1008100093097300020078000c0037008301e9009f
:10082000940378006183630002003a00868f5100d0
:10083000faff3a0014037800e10163000700320078
:1008400095017800835878000000e900e00f50001f
:1008500002003200030a2000f1ff370000005100bf
:100860000800370023002000b3bf9f00c0bf9f00d7
:10087000d1bf9f00e2bf9f006a80570000c0da002e
:100880006fb897000080fa0000000600889fbe0045
:100890008a9fbe008c1f78008901070090013300f9
:1008a00003866c006450e100240032006420e10003
:1008b000270032006150e100220032006120e10097
:1008c000210032008b854200eb07b1000134b800f3
:1008d000003ab8000804420089844a00013ab8008e
:1008e0000030b8008880400009014a00040033004d
:1008f0000000400081804800020149008b05e900aa
:10090000c909dd00830170000100320013002000de
:10091000c814de004814dd004709de001200b200f2
:10092000c808de00088470007d01070001f0a10006
:100930000cf0a70001f0a000720137006120e10077
:10094000740132000801be000200be00f7ff37004c
:100950006150e100fcff3a006e01370014002000f6
:100960009501370003f0a200889fbe008a9fbe0059
:100970008c1f780052010700590133006450e100d8
:100980004f0032006420e1005200320003826c000c
:1009900007003b000905d0000306d000820f540079
:1009a0000c065d0002003900020032008901780067
:1009b000030678008582550004003d000003fd0019
:1009c0008103fd008502ea008b854200840f7200de
:1009d00002003b0060001000e08018006011b800c9
:1009e0000005eb007a28e1000a00390006007800d3
:1009f000c75ddd00f707b200878075002d00370066
:100a0000828171000a017800610560008180d10057
:100a10000080d3008502e900f9ff3b000604400096
:100a20008784480002003b0060041400e0841c003e
:100a30000988a300070032008a8171008281710059
:100a4000610164008904d1000884d3008b05e800ab
:100a5000170037000978a30013003a000b00e000ec
:100a6000130034008b05e9000804440089844c001d
:100a70000a4474000978a3000d003a000b00e0005e
:100a8000070034008b05e9000804440089844c0009
:100a900001003a000b0020000978a300f7ff3200a4
:100aa0000001eb0002003700828171000a0178002a
:100ab0001b0107000cf0a70001f0a0001101370096
:100ac0006420e10002003a00838f6c0011013300c2
:100ad0000801be000200be000a013700889fbe0068
:100ae0008a9fbe008c1f7800f5000700fc003300d1
:100af00003866c006450e1002e0032006420e100a7
:100b0000330032006150e1002f0032006120e1002b
:100b10003100320085855500eb07b0000900200048
:100b200008042000050037000804440089844c00b4
:100b30000a0031000603430087834b000001530085
:100b400081815b00f8ff33000203be000800a000b3
:100b50000804440089844c00f6ff3900c639dd00e2
:100b60008301730001003200130020008904d100ca
:100b70000884d3000998a300050032000800a700ec
:100b80000300a0008904d1000884d3008b05e8008d
:100b90008904d1000884d3000001eb000281d20057
:100ba000df00070001f0a1000cf0a70001f0a00099
:100bb000d40037006420e100d60032000801be00f6
:100bc0000200be00f7ff37006120e100d1003200d3
:100bd0006000b800f3ff37000000200001f8270094
:100be000f0ff3700f4ff2f00f30037000001be00d4
:100bf0000c0107000470a70003f0a1006509b10013
:100c0000160032000d0035006828e10006003500ae
:100c1000f0ff2f00f1ff27000300e00013003b006e
:100c2000010028000000050000004000818048000d
:100c30008502e900fcff3a0008003700f88f420007
:100c400002003c008000eb00000005008100d100a4
:100c50000080d3008502e800fcff3a000300e000ba
:100c600002003b0060001000e08018000000060059
:100c7000889fbe008a9fbe00010578000000e0004a
:100c8000180032000004be006011b8006b0920009b
:100c90000982cf00020039000882cf000441b00071
:100ca000694252000e00320008003b008281710050
:100cb000610164008904d1000884d3008b05e80039
:100cc0000442e800f9ff3a00050037000804440038
:100cd00089844c008b05e9000442e900fbff3a00df
:100ce0008f0007004f05be004f04be000000060045
:100cf0006022b800060220000000d0008180d200ef
:100d00000482d2008582d2000000a00002025200bc
:100d100083825a00030031000202420083824a00ab
:100d20000000a1000603e900f3ff3a0000000600fe
:100d3000889fbe008a9fbe008c1f78000004be0002
:100d4000b80007000478a30026003a006120e10003
:100d50002500320009f8a30025003a006420e100d4
:100d600021003200f507b1000508a300020032009f
:100d700000004000818048006044b800031020005b
:100d80000200200000004000818048000805440067
:100d900089854c000a0541008b8549000a055000f1
:100da0008b855800030033000a00be000204740063
:100db000838474008301d1000281d300830f71000a
:100dc000f0ff3a008904d1000884d3006001490093
:100dd00082017800c1adde00fb07b00050000700c3
:100de000480037000960a0000800be004500370039
:100df00012022000e2748800f0ff2f00f1ff2700ac
:100e000040003700881f7800010478000100e000ee
:100e100005003d0060001000e080180002003b006b
:100e200001f02c000300370091ff070008f0a70035
:100e300001f0a0004f047800000006000001eb0064
:100e40008d003700320020008b003700889fbe00e5
:100e50008a9fbe008c1f7800190007001002200036
:100e600002003b00e07488001d0037008a00620029
:100e70006408e10002003a00e074880025003700b1
:100e80006108e100fcff32000800be0003047800a6
:100e900012ff070001f0a100de00070008f0a60025
:100ea000040037000001be0091042400b0fd2000c2
:100eb000acfe070009f0a70001f0a2001100370006
:100ec0000004be00570007000003be000405be007a
:100ed0000200be0053000700844f750000000600aa
:100ee0000200be006450e100050036006420e1000d
:100ef000020036000968a30001003a000800be00a5
:100f00000160a0004f0678004f05be004f04be00f0
:100f100000000600f0ff2f00f1ff2700f9ff370067
:100f200081002000618055000b003d000b00200077
:100f300061fe2f000100e1001d003400828171007c
:100f4000610164008904d1000884d3000000e80036
:100f5000faff3a0071002000610064000300700095
:100f6000020060000900320061044400e0844c008b
:100f70000988a500050032008b05e8006808e1003b
:100f800002003a008904d1000884d300f20f200047
:100f90000258e10005003d00c75ddd00f907b20021
:100fa0008980750008007800000006000bf8270013
:100fb0008b00780000000500889fbe008a9fbe005d
:100fc000841f7800beff07004f0078001100330037
:100fd000f0ff2f00838f6c0006003b0004056500c6
:100fe0000a00a7000800370009f0a6001000200042
:100ff00008003700820f5400838f5c000300390023
:101000001000200001003e000000200009f0a700b1
:101010000000ea004f05be004f04be000000e000e3
:1010200000000600c70ade00f107b200f50fb200ab
:1010300008003200e1cf4200020032000170a0003f
:1010400024000500810f7000010032000408050033
:1010500044000500810f700002003a0014000500f2
:101060008502e9000000400081c04800fcff3b0011
:101070000170a00024000500889fbe008a9fbe006a
:101080008c9fbe000206780001f0a7000cf0a000c3
:101090000004be00e3ff07000800be006420e1007a
:1010a0000700390002003a00f1ff2700f0ff2f008f
:1010b0000160a00012022000e27488005100370095
:1010c00009f0a1000800be000200200003f8230080
:1010d000c4fe0700f4ff3c000800be000200200030
:1010e000039823001dfe07000800be0030003500f5
:1010f0000200200003f02300bafe070005003c00b8
:101100000800be000801be00e0fd07000005be00ab
:101110000e0037000c10a2000000200001f8230090
:101120000801be000ffe07000200200003f02300ac
:10113000d6fd07000005be00fdfe070002002000ee
:1011400003002c00d1fd07000004be000a00be0011
:10115000b2d02800130b2c0003fe07000a01be00ca
:10116000cafd0700020f2500330b2400fefd070017
:10117000809fbe000a00be005206220013f02b0022
:10118000c2fd0700b2662100f3f62300f6fd07005a
:101190000a01be00bdfd07004f01be004ffe070063
:1011a0000801be00b9fd07000801be00eefd070002
:1011b0000c00a70007003700b2fd200093fc2300bd
:1011c0000c10a700e8fd07000cf0a70001f0a2003a
:1011d0000c0037000cf0a7000200370001f0a2005d
:1011e00004003700b2fd2000930424000c10a60078
:1011f00003003700b2fd200093fc23000c10a70071
:10120000d9fd07004f06be004f05be004f04be00cb
:1012100000000600889fbe008a9fbe008c9fbe0013
:101220000004be007fff07000800be0089067800aa
:101230006420e10008003900040032000160a000d1
:1012400012022000e27488005300370091fc230052
:10125000b0fd20004e0037000006eb0009f0a100b1
:1012600003f82300020020000800be00bbfd0700b9
:101270000600340001f82300000020000801be0031
:1012800016fe07000004be002c0020000800be006f
:1012900093e82300320a2300b0fd07001200340057
:1012a0000801be00d1fd2300703d2b00aefd0700fc
:1012b0000005be00b3f32300f27a26000800be004a
:1012c00072fd070003f8230002002000a5fd0700bf
:1012d0000801be00a4fd07000a01be00fffd0700d3
:1012e0000004be000c06e8000800be0001f0a100ea
:1012f000020020000398230098fd07000800be00ac
:10130000160035000801be0060fd07000005be00a4
:1013100032cd2c0043fb230093fd0700809fbe00cd
:101320001269280003d52b000a00be0057fd0700f4
:10133000620f210013ef2b008bfd07000a01be0096
:1013400052fd07004f01be00e4fd07000801be008a
:101350004efd07000801be0083fd07000c00e00001
:101360000b0032000c10a70001f0a200b2fd20001b
:1013700093fc23006260e1000400320022a92000f7
:1013800063f023000c10a70063f8230076fd07002c
:101390000df0a70001f0a2004f06be004f05be00f1
:1013a0004f04be00000006002800fa00889fbe001f
:1013b0008a9fbe008c9fbe0003866b00520307000d
:1013c0000028a30064003a000128a30067003a0047
:1013d0000008a30062003a000108a30065003a007b
:1013e0001e009000be08900081064000ed3fb10055
:1013f000f4805700ee019000111ab8008e09900099
:10140000311bb8009e099000311cb800511db80076
:10141000f485570046000700fe0190003a000700df
:101420008b85e8003e0007008e0990004000070011
:10143000ee019000340007008b85e80038000700bb
:101440008e099000400007009e0990001b18b8000c
:10145000890440000a854800fe019000340007001e
:101460008b85e80038000700ee019000300007008f
:101470008e0990001b18b800890440000a854800b6
:101480000a98a30008003a000402420085824a003c
:1014900006034b0087834b0008044c0089844c00f2
:1014a0000a054d008d06e9008482720085027300f2
:1014b0004c3add0085027200010032001500200068
:1014c000443ade001400b2004538de00cb45dd00b2
:1014d0000b007000c540de00cb4ddd008b8070003e
:1014e0004549de00cb55dd000b017100c551de0022
:1014f0000d0378001d03070003f0a1000cf0a70006
:1015000003f0a000140337001b18b8008502400048
:1015100006834800e0834b0060044c00070037005e
:101520001b18b8000603400087834800faff370005
:101530001b18b8008703400008844800e0844c0072
:1015400060054d00000006001b18b80008044000ac
:1015500089844800faff37000108a300fb023a0023
:101560005800be005801be00e3ff37000008a3008a
:10157000f6023a0009047800f9ff37008103780089
:10158000a8fe07000001be006000b8000478a300b8
:1015900013003a006220e10015003e000d00390002
:1015a0008301d1000281d3008180d3008301d10067
:1015b0000281d3008180d3008301d1000281d30056
:1015c0008180d3000538b000c42add00f300b200ea
:1015d0008381720007f0a70003f0a000000006005e
:1015e000f3ff2700f2ff2f006110b900fbff370067
:1015f00003ff2700f7ff37008f1fd1000703070005
:101600008f87e9000000e00000000600801feb006b
:10161000020307008f87e9000000e00000000600d9
:101620001400fa00889fbe008a9fbe008c9fbe00f7
:101630000005be000206be00680047000c90be0018
:101640000a90be001e0307006400e1001a00320089
:1016500016003e006100e1001a0032006e049000a6
:10166000fe0490000e0b90009e0b90006011b800dd
:101670009e0590000b38b100d501200082817100d9
:10168000610164008703d1000683d3008984d300fd
:101690000884d3008502e900f8ff3a0020fe070025
:1016a0000df0a70001f0a000ab023700f1ff27000a
:1016b000f0ff2f00a802370001f8270000002000eb
:1016c000f7ff37006000b800f5ff3700230307007d
:1016d0000509780000000600809feb00cf0207009c
:1016e0008f87e9000000e000000006002800fa00f3
:1016f000889fbe008a9fbe008c9fbe0007067800b0
:10170000878669000c003b0003047800870478009a
:1017100008f0a10009f0a100840f5000858f580047
:10172000860f5900890f5c00030033000cf0a20003
:1017300001003a000cf0a100730207006400e10010
:101740005f003200780147006408e1006100320068
:101750006c014700748557003200be001201be00c4
:101760003a04be001a05be001e039000be0a900097
:101770008503530006003d000004fd008104fd00c8
:101780000205fd008305fd008703ea0005037800dc
:101790000df8a3000400320060041400e0841c0073
:1017a00060051d00e0851d006022b8007d0320005b
:1017b0000d38e1008006eb000b0039004433dd00fa
:1017c000f300b20083017300390037008482720095
:1017d0000d027800e10664008b85d1000a85d300f4
:1017e0008984d3000884d3008703e900f7ff3b0016
:1017f00008004000898048000a0149008b814900a7
:1018000004003b0060001000e08018006001190037
:10181000e08119000358a300090032008d82720094
:1018200084827200610260008301d1000281d300d2
:101830008180d3000080d3000603e8001b0037003e
:101840000348a30017003a000600e0001700340028
:101850000603e9000d00a300000048008180480055
:1018600002014900838149000348a3000f003a00a8
:101870000600e000090034000603e9000000400013
:1018800081804800020149008381490001003a003b
:101890000003eb000348a300f5ff32006022b8000c
:1018a0000200370084827200618266002f02070006
:1018b00003f0a1000cf0a70003f0a00026023700ff
:1018c000640147006408e10002003a000df8a3003b
:1018d0001e023a003200be001201be001e02370096
:1018e0001400fa00889fbe008a9fbe008c9fbe0035
:1018f0000004be000205be00680047000a90be005a
:101900000890be006e0207000070a7000bf0a10057
:101910000bf8a30020003a009e0990000e099000e9
:10192000fe0090006e0090009e0290003443200064
:1019300084825200080232000a003c00b4fc2f00ee
:101940000428e100140034008301d1000281d30097
:101950008180d3000080d3008502e800faff3a00be
:10196000fd013700b40020000428e10007003c001e
:101970000000400081804800020149008381490045
:101980008502e900faff3a00f3013700030028005e
:1019900002002000010037006011b8006000b800ac
:1019a000ed0137002800fa00889fbe008a9fbe0024
:1019b0008c9fbe0003866b00d30107006400e1002a
:1019c000440032006408e1004a0032006100e10096
:1019d000460032006108e10049003200ec06470091
:1019e0006000b8003d02be003d03be00f486570013
:1019f0006011b8003d04be003d05be007d0320001f
:101a00000b0037000000a0008d06e9001300320033
:101a10000402420085824a0006034b0087834b0084
:101a20000000400081804800020149008381490094
:101a30000802520089825a000a035b008b835b0014
:101a4000f0ff3b000802420089824a000a034b0073
:101a50008b834b008d06e900edff3a008482720013
:101a600086827200f707b20087827200010032009e
:101a7000150020001e0490003e0b90000603540049
:101a8000e63fb0000368a300070032000000a70093
:101a90000500a0008301d1000281d3008180d30022
:101aa0000080d3000603e8008301d1000281d30047
:101ab0008180d3000080d3000002eb000482d200ba
:101ac000aa01070003f0a1000cf0a70003f0a0009a
:101ad000a1013700640247006408e1009b01320065
:101ae0003400be003401be00f6ff37006108e1009b
:101af000960132006011b8006000b800f1ff3700b5
:101b000003ff270002002000fbff3700889fbe0074
:101b1000008270000402710024003200364320006d
:101b2000c50020008383cf000a0039000541b100c1
:101b30008283cf00070039000541b1008183cf00c7
:101b4000040039000541b1008083cf000100390055
:101b50000541b10085c353006022b8001200320075
:101b60000a003b0084827200610260008301d100a0
:101b70000281d3008180d3000080d3000603e800f7
:101b80008743e800f7ff3a000700370000004000f5
:101b90008180480002014900838149000603e90071
:101ba0008743e900f9ff3a00700107004f04be00c7
:101bb0000000060007f0a200ccfe37000800fa0083
:101bc000889fbe008a9fbe0084bf9f0095bf9f0074
:101bd000a6bf9f00b7bf9f003004be002005be0017
:101be0000fba97009fba97002fbb9700bfbb970013
:101bf0000404440085844c0006054d0087854d0093
:101c00000898be000a90be000440e10005c8e1004b
:101c100006d0e10007d8e100020031006800400072
:101c20001008e8004f05be004f04be000080fa0017
:101c300000000600fe874700889fbe008a9fbe0006
:101c40008c9fbe008e1f7800d0b79f00e1b79f0029
:101c5000f2b79f0083bf9f0084b79f0095b79f0096
:101c6000a6b79f00b7b79f008000eb00f1af9f00c1
:101c7000e1af9f00d1af9f00c1af9f00b1af9f0008
:101c8000010678000d042000ccb79f000605be00b9
:101c90000404be007fae97006faf97005fa8970067
:101ca000e00f56000f003d00cf71de000c01460032
:101cb00002817100f2af9f00c00007004f20de00dc
:101cc0008180400081007000c70007000802be004c
:101cd0000a03be0060fd2f000f004000b7ff0700a1
:101ce0001a003700b50007004f21de008180400058
:101cf00081007100bc0007003faa9700cfaa97009f
:101d00005fab9700efab97000800520089805a0044
:101d10000a015b008b815b00b0af9f00c1af9f00e9
:101d2000d2af9f00e3af9f004f70de000c01460072
:101d30000200700013002000940007000100390029
:101d40008001eb0003005000f0af9f007fae9700d2
:101d5000e00f56000f0035001000200001002000a9
:101d60006011b8005fb29700efb297007fb39700a1
:101d70008fbb97000402700085827000060371001b
:101d800087837100d4b79f00e5b79f00f6b79f0027
:101d900087bf9f00cfb297008502e800c5b79f00bc
:101da0008d8f5200bbff3a000c017800e00f51000c
:101db00007003d000fb297009fb297002fb3970026
:101dc000bfb3970060fd2f000f0040007bff0700ae
:101dd000ffa09700e08f500008003a003fac97004a
:101de000cfac97005fad9700efad9700d8b79f00dd
:101df000e9b79f00fab79f008bbf9f005fb09700c5
:101e0000efb097007fb197008fb997004f07780028
:101e10004f06be004f05be004f04be00ef01b100eb
:101e200000000600881f780018002000881f780036
:101e300080ff07008f87e9004f047800000006004c
:101e4000801feb007bff07008f87e9000000060082
:101e5000889fbe008a9fbe008c1f7800500007003c
:101e600005003d002700070007003d002b0007008c
:101e70000006eb00040037002d00070002003d00c3
:101e8000260007001c002000e6ff07002e000700c8
:101e900001003200360007000400be000601be004b
:101ea0004f0678004f05be004f04be00000006003c
:101eb000889fbe008a9fbe008c1f780038000700f4
:101ec00003003d000f00070004003d000200370042
:101ed0001700070001003d0010000700d8ff0700b1
:101ee0001900070001003200210007000400be00b5
:101ef0000601be004f0678004f05be004f04be002d
:101f0000000006000000540081805c0002015d00ba
:101f100083815d001c0020001c0037000402540077
:101f200085825c0006035d0087835d00000006007b
:101f30000006eb00e00f5200e08f5a00e00f5b005c
:101f4000e08f5b0000000600800578000105780046
:101f500082047800030478000b0278008a0278007b
:101f60000903780088037800e00f5600000006009f
:101f70006000b8006011b80004025000858258006b
:101f80000603590087835900000006000820e1007d
:101f900009a8e1000ab0e1000bb8e100000006006a
:101fa0006044b8006055b8000800e1000988e1000d
:101fb0000a90e1000b98e100000006004f01de00ee
:101fc0008e00470081007100c1af9f00afa897004d
:101fd0004f09de000000400000007100b0af9f001c
:101fe0001faa970000000600a1af9f000e00070087
:101ff0004f18de00040242000002720094af9f00fe
:1020000009000700000040008180480002014900eb
:1020100083814900b0b79f00c1b79f00d2b79f002e
:10202000e3b79f00000006001fb09700afb0970015
:102030003fb19700cfb1970000000600889fbe0017
:102040008a9fbe008c1f78000006eb00e00f500056
:10205000e08f5800e00f5900e08f590007003d0065
:102060006044b8006055b8000000540081805c00f6
:1020700002015d0083815d001c002000e00f520022
:10208000e08f5a00e00f5b00e08f5b0007003d002f
:102090006044b8006055b8000402540085825c00ba
:1020a00006035d0087835d000c00a200b8000700f6
:1020b0000203be000002be00e00f56000600320020
:1020c0006000b8006011b80004025000858258001a
:1020d00006035900878359000400be000601be00b4
:1020e0004f0678004f05be004f04be0000000600fa
:1020f000020ab900001bb9000200b80081004200ca
:102100008100430000000600680447000294be00fe
:102110000094be00fc0447008694be008494be0078
:1021200009007800660007000800780064000700d6
:1021300099007800814f70000b003b000800be0042
:10214000b50007004f00b10003003700f3ff270080
:10215000f2ff2f006110b9004f06be004f05be0010
:102160004f04be000080fa000000060018002000a6
:1021700057002000080453000d003d000600200019
:1021800097fc2f000740e1001e003400848272009b
:10219000610260008301d1000281d3008180d300fd
:1021a0000080d3000804e800f8ff3a004700200050
:1021b0006104600005047400040464000d00320032
:1021c00061004000e080480060014900e081490072
:1021d00003b8a500070032000603e8006538e100f7
:1021e00004003a008301d1000281d3008180d30032
:1021f0000080d300f87f20000830e10003003500a4
:10220000080378006000b8006011b8004433dd00b6
:10221000f300b2008301730000000600889fbe0037
:102220008a9fbe008c9fbe000404be000605be004f
:10223000809fbe00829fbe008500070004067800d4
:102240000800be000a01be00810007008406780075
:102250004f03be004f02be008d4f76007fb0970047
:1022600013003300f0ff2f008b8f6b0006003b0044
:102270000d0666000c00a7000a00370007f0a60054
:10228000100020000a003700880f5200898f5a0082
:102290008a0f5b008b8f5b00030039001000200069
:1022a00001003e000000200007f0a7000000ea0047
:1022b0004f06be004f05be004f04be0000000600e2
:1022c000800078005002be005003be004439de009a
:1022d000f700b200f37f2000030161000900320023
:1022e0000218e10016003a008501720083017300b4
:1022f000838173000008200015003a004000200090
:10230000130037008501720083017300838173001d
:1023100005003a0004a8be0006a8be001000200078
:102320000b0037000201e9000402420085824a00e6
:1023300006034b0087834b000748a300f9ff3200d8
:102340000740a00004a8be0006a8be002000200090
:102350008000980092009800000006000003be0074
:1023600030fb07006220e100020032000600be00e0
:1023700005000500e507b100f107b20004f02300f5
:102380008480700007f0a70001f0a0002400050081
:10239000889fbe008a9fbe008c9fbe000404b800c8
:1023a0000506b8008904460060854e000606b800a0
:1023b0000a054600e0854e000706b8008b0546007a
:1023c000040eb800890446000a854e00e0854d00e1
:1023d000050eb8000a0546008b854e00060eb800b3
:1023e0008b0546000416b8000a0546008b854e0092
:1023f0000516b8008b054600041eb8008b05460084
:102400000800be000a01be004f06be004f05be0018
:102410004f04be0000000600e48240001078a300d4
:1024200007003200640240001178a3003400be00af
:102430001401be00040032000330a70000000600b3
:102440003500be001501be000330a00000000600ec
:1024500005ff270005826100070032000428e10023
:1024600001003200240005000600070001003a00c8
:10247000440005000408050002000700f9ff3a00c7
:10248000140005006f8261008102700085027100f6
:1024900085027200000006000011800066006000e6
:1024a000e60f500002003a003011800000000600e4
:1024b00030118000f00fb200000006001011800003
:1024c00061406000000006008560a9008580a900c9
:1024d000670160004c11dd0043058000f1ff28001a
:1024e00081806100828070004105880000017800d1
:1024f0000207b2004411de005305800081ff2f0067
:102500008180610082807000510588006801600050
:102510004311de00610161004b11dd00a104800068
:1025200001b0a10082807000a10488000008b20000
:102530004700de00610060004c00dd00a104800067
:1025400001c0a10080807000a10488000000060086
:102550004211880000118800111188000000060057
:1025600001118000e6806000e68f5000010032001b
:10257000f00fb20020118800000006001111800049
:102580000110b20010c0b300010032000040eb00a7
:10259000000006000021ef001108880020088800d4
:1025a000000006008460a900670160004c11dd0096
:1025b00023058000f1ff2800818061008280700087
:1025c0002105880068006000a10480000130a1009e
:1025d00080807000a104880000000600211088009f
:1025e0003010880000000600020024003010800037
:1025f00061006000fdff3a0031108000e48060005f
:10260000808f5000f9ff3a003010800068006000b1
:10261000810f5000f5ff3a0031108000e280600029
:10262000808f5000f1ff3a00301080007000600091
:10263000810f5000edff3a00411080008280600061
:10264000808f5000e9ff3a00000006000602a80053
:1026500000000600881f78000080fb001010880032
:10266000411080000108b20000c0eb000b003a00ee
:10267000000024004810800000046400fdff3a00c0
:10268000d9ff070041108000000028000080600092
:10269000880f500001003200e0cfb3004f047800f3
:1026a000000006000622a800000006000802d5006f
:1026b00061406000000006000662a8003010800043
:1026c00068006000fdff3a0008c2a9000010800009
:1026d0000000060006a2a8000682a800000006006e
:1026e0000642a8000000060007e2a9009600a90023
:1026f0009620a9008600a9008620a90000000600f7
:1027000084e0a900670160004c11dd003305800002
:10271000f1ff28008180610082807000310588000f
:1027200068006000c300de00e1806000c708dd00d3
:10273000a00480000070a10001007000a0048800c7
:10274000000006000621ef0061088800800888006c
:102750001061a9000000060030088000000006009b
:10276000889fbe000004be00050037000200fb0089
:102770008900780023000700e10f400004003200c8
:1027800038417800e04f5100f8ff3a000000eb00bc
:102790004f04be0000000600881f7800410d210094
:1027a000efff070000047800410d2100a000200089
:1027b00014000700080078004f04780000000600ad
:1027c000410d21000f000700000006000000fa0084
:1027d00068815700cfb89700400d2100b400070072
:1027e0000080fa00000006000000fa00688157002f
:1027f000cfb89700800c21007d0807000080fa0008
:1028000000000600889fbe0001047800b800900018
:10281000628160008084eb003c003200810178001e
:102820000320b2001801900002003a00830f51000b
:1028300036003a000190a00031049800800478002e
:10284000f90fb200e00f510002003a00280090009a
:10285000000c7800ea8f540006003a00010078006e
:102860000008b20003003a0088007800d000200081
:10287000e4ff070018009000d8009000810f50007e
:102880000b0032000000e8001004980018007800e7
:1028900009487800000ce80010c0b300016e240065
:1028a00080487800ea8f540018003a00050037008d
:1028b0008800780009407800d30907008004780078
:1028c00012003700380090000010b2000f003200f4
:1028d00018019000a80090004800900089f70700b8
:1028e00098009000810f50000400320038009000e2
:1028f0000003b300300498008084eb000000eb007c
:102900001004980028009000000c7800090078005e
:102910004f04be0000000600889fbe008a9fbe00d4
:10292000d1c6b300e04f500025003d000040ea0052
:102930000004fb00814f50000b00340042062000d1
:10294000110009000204d80001007800a90020004d
:10295000110009000900d800690040004300dd00b3
:10296000eaf4200023003700ea4f50001100340041
:10297000a2002000110009000204d8000104780020
:1029800080007800e9804000c308dd00e0f420000a
:10299000810040004344dd00080040003002be00da
:1029a0002003be005101be004100be007efa0700b8
:1029b000340037004344dd00e0f420002c003700f1
:1029c0000004fb00814f50001c0034004206200030
:1029d000110009000204d80001007800a9002000bd
:1029e000110009000900d800690040004300dd0023
:1029f000eae92000000045003002be002003be00ce
:102a00008b0920008a8545003b00be002b01be00db
:102a100065fa0700809fbe00110009000904d80074
:102a2000010478004f00be004344dd000805450066
:102a30003a02be002a03be00dcff3700ea4f500016
:102a400009003400a2002000110009000204d8008f
:102a50000104780080007800e9804000c308dd00b0
:102a6000e0e92000caff37004344dd00e0e9200030
:102a70000804400018007800980090002801900099
:102a8000b80190008003780001037800820278008a
:102a900003027800070078008600780005017800be
:102aa000840178004f05be004f04be000000060000
:102ab000ef03b000889fbe008a9fbe008c9fbe00bf
:102ac0008e1f7800c0b79f00c1a79f00b2af9f00c4
:102ad0000000eb00a0b79f0087073700cfa097004a
:102ae0008100e800c1a79f0055c2b30085cf550003
:102af00006003a00810278008005eb0001c3b300b4
:102b00000cc2b300b7c2b300130037004fb1970037
:102b1000b20290000504b200040032009203780073
:102b20008b4b78000709e800070037008b02fb0099
:102b3000cfb097000500780032ff070080027800d0
:102b4000e18f42006c073200afb197008301e800cb
:102b5000a3b79f00680737008506780035477800df
:102b6000d4c2b300844f57000900320005003c0076
:102b70008c4f570008003200874f57000c003a0076
:102b800007003700814f570009003a000600370060
:102b90000b30a000f0ff37000b00a000eeff370065
:102ba0000b10a000ecff37000b20a000eaff37005d
:102bb000e2836500010032000b00a100e88365009c
:102bc000010032000b20a1008e03fb000703b100bf
:102bd000e98f53000d003e008d03780002002000b5
:102be0006a10b9003701fb000203b1000001410087
:102bf000870678001700fb000003b100e90f5000c2
:102c0000f7ff3600c2af9f000a0037000003eb0059
:102c1000c6af9f00a5c2b300854f570005003a001c
:102c2000bfab970047047800b7af9f00c8af9f00c5
:102c30008d06e800e5c2b3009dcf12001a003a00ed
:102c40000be0a000bbb79f000d077800e4c2520064
:102c5000decf1200030032008e0378000000200057
:102c60000a0037003fad9700ca057800baaf9f0051
:102c7000dbaf9f008e06e800ccc6b3003fb19700e3
:102c80000e0037006a00b900000041008706780096
:102c9000b700fb0002fd2f0001014100e90f5100c8
:102ca000f8ff3600030037000bc0a000bbb79f0041
:102cb0000000eb00d0af9f00efff37000d00780061
:102cc00030477800800678008c4f57002e00320085
:102cd000b2b79f00c0a79f00c5c6b300854f57007d
:102ce00014003c004bc6b3008b4f57002400320049
:102cf00009003c00f4c25200854f570032003200f8
:102d0000ebc24200854f5700af003200e04f570042
:102d1000d1003a00fd06370065c6b300854f570065
:102d20001f003200e3c24200854f5700ca003a003c
:102d3000130037003bc7b3008b4f57002a00320007
:102d400007003c00f5c6b300854f5700190032005c
:102d50008542e800854f5700bf003a001a0037004f
:102d600055c7b300854f5700c2003200e3c242008e
:102d7000854f5700b8003a00ee779f0016003700e5
:102d8000ee779f00bf003700700061000101200056
:102d9000010032000100280001017100c7ff370067
:102da000ee779f00bfb0970001a0a000b1b79f00d1
:102db000b4003700ee779f003fb197000260a0009b
:102dc000b2b79f00af003700ee779f00bfb197000a
:102dd0000350a000b3b79f003fb297000470a0005b
:102de000b4b79f00a7003700ee779f00bfaa9700f7
:102df00045077800b5af9f00deb79f00e00f570092
:102e000002003a00070c2100d7b79f00dfb39700fc
:102e10000007eb00010037000e07e80067407f0065
:102e2000e04f5000fcff3a000e047800e8b79f0026
:102e3000dfac9700e08f5400050032006fb59700bb
:102e40008a8f54000200310089057800ebb79f009b
:102e5000efb397000007eb004fa89700870f5000d3
:102e60000100360007075000bfb097006886600079
:102e70002f003a008e0578000dc2b300afb4970062
:102e80004fb497000e003700380090000004b200e5
:102e900004003200180078000d487800000ce800ab
:102ea00005003700880078000002200055fe07006a
:102eb000e10f4000010032008904e8008b05e900c1
:102ec000e08f5500f0ff3a00a9b79f000087eb00a4
:102ed000170037003d0090000004b20009003200e6
:102ee0009d01780008017800324078008049780020
:102ef000830ee80002047800e04f500008003a001a
:102f000010003700080178003200fb00020478004e
:102f10008d0078003bfe0700e10f40000900320001
:102f20002fb197000201e800a2b79f00050037000b
:102f30005fb49700efb497007fb597008fbd9700ff
:102f4000cfb69700890378008704e900e08f53002b
:102f5000e0ff3a00d8b79f00e9b79f00fab79f009b
:102f60008bbf9f00870f5600630632008e057800e6
:102f70000dc2b300afb497004fb497000e003700f6
:102f8000380090000004b2000400320018007800fd
:102f90000d487800000ce800050037008800780034
:102fa0000002200017fe0700e10f40000100320080
:102fb0008904e8008b05e900e08f5500f0ff3a0036
:102fc000a9b79f004c063700bfa8970041077800bb
:102fd000b1af9f000e027800cfa2de00050378009b
:102fe00086037800e4af9f00f5af9f0086b79f008f
:102ff00097b79f004822de00482cdd0004027400d1
:10300000e4779f00bfb49700708764000a00320025
:10301000e04f520008003200e14f4200060032004b
:10302000f4779f004fdd97008a7f9f002b002000e0
:10303000ebb79f00040037004fd89700f0779f0050
:1030400011002000e1b79f0072fb2f0002814700b2
:10305000d2b79f0076ff3700ee779f0063fb2f000b
:1030600083814700d3b79f0014002000e4b79f007e
:103070006fff3700ee779f00bfb29700050cb300db
:10308000b5b79f000e7020003fb397008e04630019
:10309000ac0332000e0021000e0763000200320074
:1030a00067002000d7af9f003fb49700700764000f
:1030b000090032003faa97004401be004400be0050
:1030c000b4af9f00e0af9f00f1af9f0082b79f00b9
:1030d00093b79f0015003700bfaa97004500be00b8
:1030e000b5af9f0025f907008003780081047800c0
:1030f0000205780007067800090478008a0678003f
:10310000030778000c007800880078000d01780033
:103110008e0178000004be000205be00e8af9f00eb
:10312000f9af9f008ab79f009bb79f006022b8004d
:103130006033b8006fa89700ffa897000fb1970001
:103140009fb197002cf90700e00f50000c003d00e4
:103150006fa89700ffa897000fb197009fb1970045
:1031600003f0a200e0af9f00f1af9f0082b79f0085
:1031700093b79f00bfb097003100b300b1b79f0075
:103180000007eb00de9f9f006022b8006033b800ac
:103190006fa89700ffa897000fb197009fb1970005
:1031a0001af907008e0f5000470032006fa89700f1
:1031b000ffa897000fb197009fb1970018f907007b
:1031c000a2fb2f000f01410040f907005f98970014
:1031d0000000e9006300b900a2002000811f780010
:1031e000110009000200d800cf007800d09f9f0096
:1031f0008e0f500002003d000000e900d09f9f00ac
:103200005f999700d2b79f000240ea00c2fd070015
:103210006faa9700ffaa97000fb397009fb397007c
:1032200061f80700b0a79f00a1a79f0092a79f0089
:1032300083a79f006022b8000600200007ff23003c
:103240000106780002077800830678000004780001
:103250008c0478000e0578008d0578000800be000b
:103260000a01be00e4f80700e00f500003003d0033
:10327000dfb197000307e900120037006022b800b1
:1032800006002000470224003fa097002fa69700c9
:103290001fa797008fa69700000478008c04780081
:1032a0000e0578008d0578000800be000a01be00fa
:1032b00009f90700e00f5000030035005fb29700e6
:1032c0000407e800de9f9f00dfaa9700f88f5200f6
:1032d00076003c00854378000783fb00d6b79f004b
:1032e000d0c6b30080cf53002a0036004b06200022
:1032f000110009000b83d800800578008106780052
:10330000f2854500c35cdd00ecf420008904460032
:103310006022b8000600200007fe23003900be002e
:103320002901be0020f80700ae00200080037800cd
:10333000811f7800110009008e86d8008003fd00ef
:10334000cf007800e9834300c33bdd0087034600dc
:103350003702be001703be0013f807000004be00ca
:103360000205be00dfb39700801f780001037800dc
:10337000110009008e83d8000103fd004f00780082
:103380004333dd00060346003602be001603be00ce
:1033900018003700eacf530019003600aa002000b9
:1033a0005fb49700110009000a84d8000003780078
:1033b0000107780069034300c335dd00edf4200008
:1033c0008b8546006022b8000600200007fe23001f
:1033d0003b00be002b01be00f3f707000004be0057
:1033e0000205be004377dd000e8746003e02be00a8
:1033f0002e03be000800be000a01be00090037000f
:10340000dfb49700434ddd00eef420000a074700cb
:103410006022b8000600200007fe23003e00be0028
:103420002e01be00e0f70700010778008002780057
:103430000e06780082067800830378000504780081
:103440008c0478000d057800870578000802be001e
:103450000a03be006fa89700ffa897000fb197005e
:103460009fb19700a1f807008003780081047800dd
:103470000205780007067800090478008a067800bb
:10348000030778000c007800880078000d017800b0
:103490008e0178000002be000203be00e4af9f0070
:1034a000f5af9f0086b79f0097b79f00df9a970000
:1034b000d5b79f00e98f520016003c006022b8008b
:1034c0006033b8006fa89700ffa897000fb197006e
:1034d0009fb197004df80700e00f50004c003200fc
:1034e0006fa89700ffa897000fb197009fb19700b2
:1034f000fbf80700e00f5000e08f5800e00f590084
:10350000e08f590042003a005fb39700e10f53008b
:103510003f0034000400200005002e00b6e0220029
:10352000170124003fa197002fa697009fa69700a0
:103530000fa79700020478008c0478000d0578002e
:103540008e0578000800be000a01be002af80700b8
:10355000e00f500003003d00dfb39700738053007d
:10356000020037005fb4970072005400d09f9f00a4
:103570002f789700e8fc0700b0a79f00a1a79f0045
:1035800092a79f0083a79f000006be0082037800d9
:10359000030778000c04be00070578008e0578004c
:1035a0000802be000a03be006fa89700ffa897009c
:1035b0000fb197009fb19700faf80700c8f807000d
:1035c0008003780081047800020578008702780083
:1035d00003077800050478008e0578000800be0017
:1035e0000a01be00d0b79f00e1b79f00f2b79f006d
:1035f00083bf9f008000eb00e1af9f00a1af9f0061
:10360000d1a79f0001027800f49f9f001c003700a3
:103610006fa89700ffa897000fb197009fb1970080
:10362000aff807000002be00d4b79f00e5b79f00c7
:10363000f2b79f0083bf9f000400be0033f907006c
:103640000002be000203be006fa89700ffa897000b
:103650000fb197009fb1970056f9070080057800d9
:1036600001077800ebaf9f008e037800a7af9f00a3
:10367000d2a79f00f39f9f000007eb00de9f9f00f3
:10368000670021001bc0b300070478000c0037005e
:103690003800be003801be005fb29700efb297005d
:1036a0007fb397008fbb97000020e10001a8e100e5
:1036b00002b0e10003b8e100030039008b45e800e7
:1036c000f4cf5500f2ff3a00eb779f00df9e9700a2
:1036d000cfaa97008d8652005fab97008686560072
:1036e0008b05fb008b855600cbaf9f00e00f53008e
:1036f000020032008b05e900cbaf9f00bfb39700fb
:10370000e3856300030032004fac97000804e90032
:10371000c8af9f00bfb49700e48364004c00320040
:10372000e283640061866400e08f53001b00320076
:103730004fb59700ba0390000704b20009003200a9
:103740009a037800bec2b300e00f560001003200b9
:103750000ec7e8008e4b7800cfb59700870de800c4
:103760000a003700bd022000870f5600010032001a
:103770008d86e800cfb097000d00780021fc07008f
:1037800080037800e18f4300280032002fb09700bb
:103790000000e800a0b79f0024003700870f560004
:1037a00022003200cfb09700b10590000b04b200a8
:1037b000050032009103780005c2b300854b780004
:1037c0008708e80006003700cfb09700000220000d
:1037d0000cfc070080037800e18f430013003200e7
:1037e0002fb197000201e800a2b79f000f00370039
:1037f000380090000004b200040032001800780085
:103800000d487800000ce8000500370088007800bb
:1038100000032000fbfb0700e10f40000100320025
:103820000a05e8008904e900040037000dc3b3006d
:10383000cfac97002fb597004fb49700e08f54009e
:10384000ebff3c00c9af9f00aab79f00a200370062
:10385000bfb19700e8856100878f550018003a00d6
:103860000f003700380090000004b200040032005e
:10387000180078000d487800000ce80005003700bb
:103880008800780000022000defb0700e10f400006
:10389000010032000a05e8008904e900040037004d
:1038a0000dc2b300cfac97002fb597004fb497006f
:1038b000e08f5400ebff3c00c9af9f00aab79f0008
:1038c0003fb29700e203620061066200e08f53009e
:1038d0001b003200cfb29700b50390000704b2007e
:1038e0000900320095037800bec2b300e00f560015
:1038f000010032000ec7e8008e4b78004fb39700ee
:10390000070be8000a003700bd022000870f5600b1
:10391000010032008d86e800cfb097000d007800de
:10392000b8fb070080037800e18f43006a00320093
:10393000afb397008703e800a7b79f006600370082
:10394000870f5600640032004fb49700b80590000e
:103950000b04b200050032009803780005c2b300e2
:10396000854b7800070ce80006003700cfb09700c1
:1039700000022000a3fb070080037800e18f4300d2
:1039800055003200afb497008904e800a9b79f0042
:1039900051003700bc0190000304b2000200fb009c
:1039a000e08f5100270032001c077800bfb097005d
:1039b000e08f500008003d004300dd00008046001d
:1039c0003002be002003be000800be000a01be0097
:1039d00014f907000f0037005fb19700e00f5100a6
:1039e000060032004300dd00008046001001be00ea
:1039f0000800be00bef40700060037004300dd00eb
:103a00006d017800811f7800110009000284d80040
:103a1000cf007800a2002000811f7800110009006b
:103a20000200d80001007800cf0078000043b00009
:103a3000004f78000e0ee800e04f500022003a00e0
:103a40002e0037003fb29700830f520008003d0060
:103a50004300dd00008046003002be002003be00af
:103a60000800be000a01be00eef807000d00370096
:103a7000dfb29700e08f5200060032004300dd0005
:103a8000008046001001be000800be0098f4070048
:103a9000040037004300dd006d01780011000900cb
:103aa0000284d800a2002000110009000200d80002
:103ab000010078000003b0008c00780051fb070083
:103ac000e10f40000d0032002fb397000603e8001d
:103ad000a6b79f0009003700bfb397007086630048
:103ae000edff20005fb49700efb497007fb597001b
:103af0008fbd9700dcb79f004fb697006f7097009f
:103b00000041e900e2779f00e04f5000a1ff3a003a
:103b100011003700380090000004b20004003200a9
:103b2000180078000a487800000ce800050037000b
:103b3000880078000003200032fb0700e10f4000fe
:103b4000010032008904e8005f9897000000e90056
:103b5000d09f9f00030037000ac3b300afb49700a3
:103b60004fb497005f989700e00f5000e9ff3c00ca
:103b7000a9b79f005fac9700f20f54000300340018
:103b800027012000e7779f0002003700afdc970095
:103b9000e9779f006f7797008e03fb005fad97007a
:103ba00087035500d7af9f00e04f57001100320048
:103bb000cfb59700bb0390000704b20005003200a8
:103bc0001b057800e5c2b300054d78008a0de800ba
:103bd00005003700cfb09700e002200009fb070086
:103be000e10f4000030032002fb097000000e80012
:103bf000a0b79f006f70970047fb07000002be0050
:103c00000203be00efae97002fae9700dfa497002f
:103c10007f9d97000d0078008c00780009017800e6
:103c20008a017800e0f507002df70700000678000c
:103c300081047800020578008c0278000307780080
:103c4000050478008e0578000802be000a03be0055
:103c5000d4b79f00e5b79f00f6b79f0087bf9f00ce
:103c6000bfb2970070826200850678004fb6970059
:103c7000040778007a0037008401fb00e08f5600cb
:103c80000b003d00c319dd00e6ff20008301430067
:103c90003302be002303be005fb09700efb0970071
:103ca0007fb197008fb997005ef8070009003700d1
:103cb000e00f570009003200c319dd00e7ff2000c4
:103cc000838143001301be005fb09700efb09700ff
:103cd00007f407000004780009003700c319dd006d
:103ce000e9ff2000698479005fb59700809fbe00de
:103cf000110009000885d800000478004f00be00bc
:103d0000bc0190000304b200080032001c027800dd
:103d10000bc3b3008b414400034a7800040ee80053
:103d2000e0cf510009003a000b00370003032000e8
:103d3000888141008c00780003007800b1fa070008
:103d400080017800e18f4100030032002fb097001e
:103d50000000e800a0b79f00ef7097008101fb0012
:103d6000e08f560014003d00cfc4de000905780046
:103d70008a057800c319dd00e2ff200083014100bd
:103d80003302be002303be000800be000a01be00cd
:103d9000aaf807005fb29700efb297007fb39700d1
:103da0008fbb97000002520081825a0002035b0021
:103db00083835b001e003700e00f570012003200c3
:103dc000cfc4de00c319dd00e5ff2000838142007f
:103dd0001301be000800be00c5f807005fb39700de
:103de000efb397000001530081815b00e2a79f00c1
:103df000f3a79f008004eb0089af9f000005eb0054
:103e00009aaf9f000e003700c319dd00ebff2000c2
:103e1000eb81790003c0b9005fb197000000510049
:103e200000027800050020000600200007002000a6
:103e3000e4a79f00f5a79f0086af9f0097af9f0064
:103e40006fa49700ffa497000fad97009fad970058
:103e5000d8b79f00e9b79f00fab79f008bbf9f00bc
:103e6000ef7197000342e900e4779f00e0cf510033
:103e700081ff3a000f003700380090000004b200c4
:103e800004003200180078000e487800000ce800aa
:103e900005003700880078000003200059fa070069
:103ea000e10f4000010032000a05e8008904e90042
:103eb000040037000ec3b300dfac97002fb59700a6
:103ec0004fb49700e08f5400ebff3a00d9af9f004a
:103ed000aab79f00bfb49700e88264005fad970067
:103ee0008a8f520084023200cfad9700e08f5500d8
:103ef000810234000ec2b3008b0478002fb5970006
:103f00004fb49700380090000004b2000400320063
:103f1000180078000e487800000ce8000500370013
:103f2000880078000002200036fa0700e10f400008
:103f3000010032000a05e8008904e900f1ff3a00b7
:103f40006c0237003fb597000a0cb200890f55008c
:103f500045003a003fb097008a0f500005003d0031
:103f60003fac97004803be004802be00b8af9f00b8
:103f700012003700bfb49700f08364008a8f5300ab
:103f8000130032003fa897004005be00b0af9f006d
:103f9000100790004ff7de008a0278000b067800c9
:103fa0008e037800050478008c0478000e057800f4
:103fb000870578000802be000a03be00d4b79f0040
:103fc000e5b79f00f6b79f0087bf9f000b00370043
:103fd000bfaa970045047800b5af9f00080078009d
:103fe000cf80de000101780082017800d0b79f0009
:103ff000e1b79f00f2b79f0083bf9f005fb29700b9
:10400000efb297007fb397008fbb9700e00f52008d
:10401000e08f5a00e00f5b00e08f5b003a003d004c
:10402000bfb297003500b300b5b79f006022b8005b
:104030006033b8005fb49700efb497007fb5970086
:104040008fbd97000804520089845a000a055b005e
:104050008b855b00d8b79f00e9b79f00fab79f0038
:104060008bbf9f00280037003fb59700e00f550039
:1040700005003d003faa97004401be004400be0079
:10408000b4af9f0010003700bfb29700f08362000a
:10409000120032003fac97004803be00b8af9f004b
:1040a00086027800070678000907780089067800fc
:1040b000050478008c0478000e0578008d057800e2
:1040c0000800be000a01be00d0b79f00e1b79f0004
:1040d000f2b79f0083bf9f000b003700bfa8970077
:1040e00041047800b1af9f0008027800050020006d
:1040f0000600200007002000d4b79f00e5b79f000e
:10410000f6b79f0087bf9f00dfaa9700e08f52009d
:104110000d003a0016002000d6af9f005fb4970054
:10412000efb497007fb597008fbd9700e00f540064
:10413000e08f5c00e00f5d00e08f5d000200320068
:104140008004eb00d9af9f003fb597000a0cb20086
:10415000eaaf9f000e0420008e0f5500340032009d
:1041600003003c00e00f550049003a00070037000b
:1041700007082000efad9700878f5500140032002c
:10418000070c2000878f550041003a00670021008e
:104190001ec0b3003700be003701be005fb49700f9
:1041a000efb497007fb597008fbd97000040e10006
:1041b00001c8e10002d0e10003d8e100330039007a
:1041c0000e47e800f44f5700f2ff3a002f00370087
:1041d0001ec0b30000012000010020006011b800e3
:1041e0005fb29700efb297007fb397008fbb970045
:1041f0000020e10001a8e10002b0e10003b8e10005
:1042000022003900450020000000d0008180d2004b
:104210000281d2008381d2008502e900faff3a00d0
:104220000e47e800f04f5700edff3a001700370047
:104230001ec0b30080002000010020006011b80003
:104240005fb49700efb497007fb597008fbd9700dc
:104250000040e10001c8e10002d0e10003d8e10024
:104260000a003900390020000000d0008180d2000f
:104270000281d2008381d2008904e900faff3a006a
:104280000e47e800f54f5700edff3a00ee779f002c
:104290006f7597000a07fb00dfad97008b0f570083
:1042a00002003d00eb779f00050037005fa89700f4
:1042b0008e0f500002003d008e007800d1af9f00ad
:1042c0004fa99700e00f510005003200bfb19700e1
:1042d000e3836100020032000201e900c2af9f00e7
:1042e000070024003fb297008703620009003200f4
:1042f000cfaa97005fab9700868f5200030034006f
:1043000086825200c5af9f00020037008003eb0099
:10431000c7af9f006f7497000807fb008004eb0095
:10432000a9af9f004fad97008e0f550002003400db
:104330008e055500abaf9f003fb09700e4056000cd
:104340004c003200e205600061076000e08f55001c
:104350001b003200cfb09700b10590000b04b200f3
:104360000900320091067800bbc2b300e00f57008d
:10437000010032008bc5e8008b4e78004fb19700ea
:104380000d09e8000a003700bd0220008b0f57001e
:10439000010032008d86e800cfb097000d00780054
:1043a00018f9070080027800e18f420018003200ff
:1043b000afb197008301e800a3b79f001400370056
:1043c0008b0f5700120032004fb29700b4039000d9
:1043d0000704b200050032009405780005c2b3005e
:1043e000854d78000b0ae80006003700cfb0970033
:1043f0000002200003f9070080027800e18f4200ec
:1044000003003200afb297008502e800a5b79f0015
:104410002fab9700e00f5300650032000dc3b300cf
:10442000860478002fb597004fb4970038009000ad
:104430000004b20004003200180078000d48780033
:10444000000ce80005003700880078000003200019
:10445000ecf80700e10f4000010032000a05e80017
:104460008904e900f1ff3a00a9af9f00aab79f00b5
:104470004f003700afab97008b8f5300180032000e
:104480003fb49700e803640015003a000dc2b30082
:10449000afac97002fb597004fb49700380090004d
:1044a0000004b20004003200180078000d487800c3
:1044b000000ce800050037008800780000022000aa
:1044c000d0f80700e10f4000010032000a05e800c3
:1044d0008904e900f1ff3a00a9af9f00aab79f0045
:1044e000bfb49700e285640061876400e08f5500e7
:1044f0001b0032004fb59700ba0590000b04b200c4
:10450000090032009a067800bbc2b300e00f5700e2
:10451000010032008bc5e8008b4e7800cfb59700c4
:104520008d0de8000a003700bd0220008b0f5700f8
:10453000010032008d86e800cfb097000d007800b2
:10454000b0f8070080027800e18f420018003200c6
:104550002fb097000000e800a0b79f0014003700bc
:104560008b0f570012003200cfb09700b1039000bc
:104570000704b200050032009105780005c2b300bf
:10458000854d78008b08e80006003700cfb0970013
:10459000000220009bf8070080027800e18f4200b3
:1045a000030032002fb197000201e800a2b79f007c
:1045b000dfa997008305e900425add00c4af9f00e0
:1045c000635eb9008c027800d5a79f00c35ddd0053
:1045d000e7ff2000878545003fb397007003630025
:1045e000f69f9f00bfb397000702b200e79f9f00ae
:1045f0000b077800a20037005fac97000804e900c1
:10460000d8af9f00efac97000a0420008a8f5400b7
:104610007100320003003c00e08f54007d003a003e
:104620000700370000082000efad9700808f55008d
:1046300055003200000c2000808f550075003a00b4
:104640003fb09700e00f50001f003d003e02be004b
:104650002e03be005fb09700efb097007fb19700c8
:104660008fb99700eff5070000047800e8779f0006
:104670000804fb00cfc4de00090578008a05780035
:104680003e02be002e03be000800be000a01be00ae
:104690006af607005fb49700efb497007fb5970004
:1046a0008fbd97000004540081845c0002055d000a
:1046b00083855d00d8b79f00e9b79f00fab79f00d8
:1046c0008bbf9f002c003700ff9c9700e08f5400a9
:1046d0001c0032005fb69700efb697003e04be00a4
:1046e0002e05be000801be000c00be0080f10700d0
:1046f000e0779f000000fb00cf80de000801be00d5
:104700007bf607000000560081805e008003780081
:10471000010378000002eb000700780086007800b3
:1047200004017800840178000203be000002be008c
:10473000d4b79f00e5b79f00f6b79f0087bf9f00e3
:104740000d0037009e047800dfb29700811f7800cb
:10475000110009008982d800cf007800a200200053
:10476000811f7800110009000280d8000100780044
:10477000cf007800e0779f006f7397000643b0008a
:10478000e6779f0023003700f40a2100ef9b970093
:10479000e08f530001003200e40921005fb0970070
:1047a000efb097007fb197008fb997004fac97009b
:1047b0000804e900050033008301d1000281d30021
:1047c0008180d3000080d300f9ff37006f006000c4
:1047d000644078000e0037005fb09700efb097009c
:1047e0007fb197008fb99700dfa497008904e90093
:1047f000050033008301d1000281d3008180d30002
:104800000080d300f9ff3700674060000043b0002c
:10481000e0779f004fb597003a0090000004b20087
:10482000070032001a0178006f7097000049780085
:10483000020de800e04f500007003a000900370081
:10484000ef7597000b00fb00cfb09700edf7070066
:10485000e10f4000030032002fb097000000e80095
:10486000a0b79f00cfa89700e4805000c1af9f0081
:104870005fa1970063015100d2a79f00680757000e
:10488000dfa99700e08f51005bff3a003fb297002d
:10489000e8026200838f520017003200afaa97002f
:1048a000e08f5200140034000bc2b300850478007e
:1048b0002fb597004fb49700380090000004b20065
:1048c00004003200180078000b487800000ce80063
:1048d000050037008800780000022000c9f70700b3
:1048e000e10f4000010032000a05e8008904e900f8
:1048f000f1ff3a00aab79f004fa3970096457800b2
:10490000eb779f00e0cf550074f83a002fb0970086
:104910004f0778004f06be004f05be004f04be0093
:10492000ef03b10000000600881f780040378200c6
:10493000f6010700000478000800780052ef070035
:10494000e00f5000f9ff3a00e10f4400030032008d
:1049500041378200080078001f0207004f047800ea
:1049600000000600889fbe008a1f780000047800bf
:10497000814478000205780000fd2f000800400007
:10498000e90f500002003e000004780010003700dc
:104990000800780044ef0700e00f500005003200e7
:1049a000e00f5500030032000800780044ef0700d4
:1049b000000478000800780048ef070080007800c5
:1049c00000c0eb00e08f5000060032007805b10017
:1049d0008984fb0000c0eb00890f540001003d00fa
:1049e000084078004f0578004f04be000000060024
:1049f000f4874700889fbe008a9fbe008c9fbe0040
:104a00008e1f780080017800e1b79f00c2b79f0039
:104a100043378a000000eb00a0b79f008040780079
:104a2000e1ef9f006c0137006fb097000000e800d5
:104a3000e0b79f000885fb000a00780012ef07002e
:104a4000e00f500002003200b7ff0700620137009c
:104a500051c2b300814f540050013a0021c0b3004d
:104a60006fb2970080467800014578000406780010
:104a7000040037004ac0b300010037002ac0b30069
:104a80000c027800bc41780081c6b30081cf510090
:104a9000faff320015003e00f0c0500081cf5100f7
:104aa000330032000a003e00ecc0500081cf5100bc
:104ab0002b00320091003e00e0cf51002200320076
:104ac000a1c2b30081cf51008c003a002200370010
:104ad00031c6b30081cf5100690032008140e80047
:104ae00081cf510085003a009800370031c7b300ec
:104af00081cf51002600320007003e00e7c0500081
:104b000081cf510016003200e3c0400081cf510038
:104b10007a003a009400370051c7b30081cf5100aa
:104b20008a003200e3c0400081cf510073003a0098
:104b3000adef9f009ae79f0000477800ecb79f0019
:104b40000000eb000f0037006fe89700834f500024
:104b5000aa003200a70037008d46e800c8ff3700e2
:104b6000e24f5500c3ff32008ac0b300c4ff3700d4
:104b7000adef9f009ae79f0000477800ecb79f00d9
:104b800010002000a0b79f0001c1b3007b003700d8
:104b9000adef9f0000477800ecb79f0062ff070071
:104ba000afee9700e0cf560004003a004fb09700f8
:104bb000c0007800c0b79f00b1b79f0040378200a7
:104bc0005201070000047800e10f440015003a008c
:104bd00008007800fc003700efb097001100fb00e0
:104be000800f540005003a000a007800b0b79f001b
:104bf0008100e800e1b79f0018003700afe8970098
:104c0000e0cf500001003a00085d78000e47e9004f
:104c10000d003200403782003c010700000478009c
:104c2000010037003fb597000800e800e10f500091
:104c3000080036000800780093ee0700e00f5000ef
:104c4000e5ff3200030037008a007800b1b79f000b
:104c5000020037000a007800b0b79f00afe8970065
:104c6000e0cf5000dc003a006fe897000040e80019
:104c7000e0ef9f003fb0970001487800d600370072
:104c8000adef9f0000477800ecb79f00e0cf5600e3
:104c900008003a00efe897008140e800e1ef9f004c
:104ca0004fb09700c0007800c0b79f0001047800a3
:104cb000010037003fb4970040378200130107001e
:104cc00080007800e18f400002003a000100780087
:104cd000bd0037002fe89700e04f500001003a0078
:104ce000015c78000e47e9004240a900f2ff3c0059
:104cf00088007800b1b79f00b70037000384fb003d
:104d000000fd2f0008004000e90f500009003e00a0
:104d1000040078004c0107008c0078000106780040
:104d20003101fb000203b100e90f5100fbff360027
:104d300053ff3700ecb79f0040378200f3000700b5
:104d4000800f54009b003a00a3003700adef9f0096
:104d50009ae79f0000477800ecb79f00a0c0b3001f
:104d6000a0e79f0006003700adef9f009ae79f0085
:104d700000477800ecb79f0081c0b300a1e79f0017
:104d8000e9fe070040378200e000070000037800da
:104d90000040eb0080e79f00d3022000830f530008
:104da00005003a0040378200d80007000003780071
:104db00011c0b30081e79f002fb19700afe09700cb
:104dc0000600780086bf9f00e6fe0700804178005d
:104dd0000fbb9700e1cf41000e003a00413782003f
:104de00006007800fc0007006fe89700e04f5000d5
:104df00002003200804078007c003700403782009b
:104e00003000900070006000790032000080eb00fc
:104e10007700370003032000830f530019003a0086
:104e200040378200b90007000003780083072000a4
:104e3000830f530004003a002fb09700e00f50009a
:104e4000070032000a00370083052000830f53005b
:104e500007003a00afb09700e08f50000400320026
:104e600040378200a90007000003780005003700e2
:104e7000413782000600780086bf9f00d6000700f9
:104e80000fbb97006044b8002fe097000085fb003f
:104e90000b0020000a01be000800be0086bf9f0074
:104ea00093f4070000067800810678002fb1970080
:104eb000afe097000fb89700aafe07000044780003
:104ec0000884fb00090020000804460089844e0085
:104ed0000e47e9000fbb97000c00320040378200fc
:104ee0008a000700000378002fb19700afe0970019
:104ef0000600780086bf9f009afe07008041780078
:104f00000fbb9700e1cf4100e2ff3a002fb19700bd
:104f1000afe097000600780086bf9f0091fe070073
:104f2000804078000fbb9700e1cf400003003a00bb
:104f30004137820006007800a70007008fe0970045
:104f4000e0cf50000200320060041400e0841c0036
:104f50002fe89700e04f50001f003a00efe897005d
:104f60008140e800e1ef9f00cfb097000180e900a9
:104f70009fe09700e4cf500004003a00c0b79f00c4
:104f8000900078008888be0013003700c0b79f00eb
:104f900090007800880878000f00370040378200c2
:104fa0005a00070080007800810f55000a00320087
:104fb00001007800e10f4000030032004137820019
:104fc0008500070008003700efe89700e0cf5000a9
:104fd00006003a00060037006fb0970010447800d2
:104fe000e04f540090fe3a00efe897000180fb008c
:104ff0004f0778004f06be004f05be004f04be00ad
:105000004f01b100000006000200fa00889fbe00b8
:10501000a0ff9f0001047800380090000001780094
:105020000204b20034003a00e2006000828f5000b7
:1050300005003a000003b300300498001104980002
:105040000080eb002e003700d8049000e08f540061
:1050500006003a0012002000e68057004800900049
:10506000a8ed07001904980023003700a80090005d
:10507000e08f500008003a00316e240021049800af
:10508000010c7800210020005104980011049800c0
:105090000030a0003004980018019000a800900093
:1050a0004800900097ed0700280090008080eb00fa
:1050b00011049800aff8970001487800000ce80050
:1050c0002ff89700ea4f50000b003a00380090008c
:1050d0000010b2000800320018019000a8009000f3
:1050e0004800900087ed07000000eb0010049800d6
:1050f000a8009000010c7800aff897000100fb00b9
:105100004f04be000080fa0000000600881f7800ef
:105110000004780038009000f1006000e18f50003a
:1051200006003a00800078000120b200080032003a
:1051300098009000e08f5000050032003800900089
:105140000040a000300498000080eb0020003700f1
:105150000090a1003004980018009000e00f50006b
:10516000070034000000e90010049800980078005f
:10517000114178000280fb00010ce80005003700b7
:10518000380090000004b200ecff3a0008007800fc
:105190004c000700b80090000108b2000c003a0073
:1051a000fa0f500008003a0028009000e00f50006d
:1051b000e2ff3200180090000000e80010049800a0
:1051c000180ce900ddff3700ed0f5000e2ff320060
:1051d0004f04780000000600e10f40001900320083
:1051e000310190001220b200e10f510012003a008c
:1051f00021029000e00f52000f00320011019000d8
:10520000d1019000830f51000d0032009101780010
:10521000848f510002003a008308e8000200370042
:105220000201e800920098001101e900820878006c
:1052300000497800000006000080eb000000060036
:105240000080eb000000060003c2b30000017800fc
:1052500002007800b040780083cf5000fbff32009e
:10526000e9cf5000f9ff3200d3c2b30083cf500022
:1052700003003a000001780013c0b30005003700b6
:105280008041eb00b4c2b30084cf500001003a006b
:10529000000178000000eb00020037006a00b9004e
:1052a000000042003202fb000403b100e90f52008b
:1052b000faff3600e0cf5100010032000000ea00a2
:1052c000000006000200fa00889fbe008a9fbe0010
:1052d000000478000000eb0010049800b800900073
:1052e000e18060000080eb0040003200006e24008e
:1052f0008040eb0090cf10000f003200cb0e210059
:10530000c9fd2f008b8444002a1020003900900032
:105310002010b2008a0f500002003a000900780005
:1053200036000700ec8444008b8f5400f7ff3a00ee
:10533000006e24000048eb0058019000e00f51007f
:105340000e003a001204980012002000ea80570074
:10535000480090001aed0700e10f500003003a00ea
:105360006ff197000280fb002000370038009000aa
:105370000040a0003004980013003700a8009000ff
:10538000480090000eed070010049800e00f500058
:1053900003003200e10f40000d003a000300370027
:1053a000380090000040a000020037003800900054
:1053b0000003b3003004980028009000000c78002f
:1053c0000000eb00100498000080eb00070037009d
:1053d000a8009000010c78000000e900100498007b
:1053e000114178000280fb00010ce8004f05be006f
:1053f0004f04be000080fa0000000600881f7800fd
:105400000004780038009000800078001120b2007d
:10541000e18f500005003a008000eb001104980075
:10542000a8009000010c78001900370000017800f6
:105430002220b2000000eb0021202000810f51004b
:1054400016003a00a8009000808f50001300320030
:1054500018019000800f51001000320048009000a9
:10546000a8ec070098009000810f50000300320064
:10547000380090000003b300300498000000eb00f7
:105480001004980028009000000c7800380090006c
:105490000002b200010032000080eb004f047800ef
:0454a0000000060002
:020000040000fa
:0200000401f009
:04000c00f8ff0000f9
:020000040000fa
:0200000401f009
:040010007eff00006f
:020000040000fa
:0200000401f009
:040014007fff00006a
:020000040000fa
:0200000401f009
:04001800efff0000f6
:020000040000fa
:10000800b0020000b0020000b0020000b002000020
:10001800b0020000b0020000b0020000b002000010
:10002800b0020000b0020000b0020000fe3600007e
:1000380092300000b0020000b0020000064a000042
:10004800b0020000b0020000b0020000523500000b
:10005800b0020000b0020000b0020000b0020000d0
:10006800b0020000b0020000b0020000b04a000078
:10007800b0020000b0020000b0020000b0020000b0
:10008800b0020000b0020000b0020000b0020000a0
:10009800b0020000b0020000b0020000b002000090
:1000a800b0020000b0020000b0020000b002000080
:1000b800b0020000b0020000b0020000b002000070
:1000c800b0020000b0020000b0020000b002000060
:1000d800b0020000b0020000b0020000b002000050
:1000e800b0020000b0020000b0020000b002000040
:1000f800b0020000b0020000b0020000b002000030
:10010800b0020000b0020000b0020000b00200001f
:10011800b0020000b0020000b0020000b00200000f
:10012800b0020000b0020000b0020000b0020000ff
:10013800b0020000b0020000b0020000b0020000ef
:10014800b0020000b0020000b0020000b0020000df
:10015800b0020000b0020000b0020000b0020000cf
:10016800b0020000b0020000b0020000b0020000bf
:10017800b0020000b0020000b0020000b0020000af
:10018800b0020000b0020000b0020000b00200009f
:10019800b0020000b0020000b0020000b00200008f
:1001a800b0020000b0020000b0020000b00200007f
:1001b800b0020000b0020000b0020000b00200006f
:1001c800b0020000b0020000b0020000b00200005f
:1001d800b0020000b0020000b0020000b00200004f
:1001e800b0020000b0020000b0020000b00200003f
:0801f800b0020000b00200009b
:020000040000fa
:10020800b0020000b0020000b0020000b00200001e
:10021800b0020000b0020000b0020000b00200000e
:10022800b0020000b0020000b0020000fe3600007c
:1002380092300000b0020000b0020000064a000040
:10024800b0020000b0020000b00200005235000009
:10025800b0020000b0020000b0020000b0020000ce
:10026800b0020000b0020000b0020000b04a000076
:10027800b0020000b0020000b0020000b0020000ae
:10028800b0020000b0020000b0020000b00200009e
:10029800b0020000b0020000b0020000b00200008e
:1002a800b0020000b0020000b0020000b00200007e
:1002b800b0020000b0020000b0020000b00200006e
:1002c800b0020000b0020000b0020000b00200005e
:1002d800b0020000b0020000b0020000b00200004e
:1002e800b0020000b0020000b0020000b00200003e
:1002f800b0020000b0020000b0020000b00200002e
:10030800b0020000b0020000b0020000b00200001d
:10031800b0020000b0020000b0020000b00200000d
:10032800b0020000b0020000b0020000b0020000fd
:10033800b0020000b0020000b0020000b0020000ed
:10034800b0020000b0020000b0020000b0020000dd
:10035800b0020000b0020000b0020000b0020000cd
:10036800b0020000b0020000b0020000b0020000bd
:10037800b0020000b0020000b0020000b0020000ad
:10038800b0020000b0020000b0020000b00200009d
:10039800b0020000b0020000b0020000b00200008d
:1003a800b0020000b0020000b0020000b00200007d
:1003b800b0020000b0020000b0020000b00200006d
:1003c800b0020000b0020000b0020000b00200005d
:1003d800b0020000b0020000b0020000b00200004d
:1003e800b0020000b0020000b0020000b00200003d
:0803f800b0020000b002000099
:020000040000fa
:1054a4002121000021200000464c0000415300004f
:1054b40048200000575200004954000054450000a1
:1054c4004e2000002121000021200000444f000054
:1054d400204e00004f5400002041000042550000bf
:1054e40053450000205400004849000053200000a8
:1054f40021210000212000004c4900004d490000fa
:105504005445000044200000575200004954000054
:10551400455300002041000056410000494c000062
:10552400414200004c4500002021000021210000e0
:10553400002a00002a2a0000434f00004e460000c3
:105544004947000020530000494700003a25000065
:105554007820000077720000697400006543000041
:105564006f7500006e7400003a250000782a000070
:105574002a2a00000a00000041630000636c000056
:10558400204f000066660000733a000020250000ea
:105594002e320000662c0000252e0000326600002a
:1055a4002c2500002e320000662000005365000008
:1055b4006e7300003a200000252e000032660000c1
:1055c4002c2500002e320000662c0000252e000041
:1055d40032660000204900006e7600003a25000083
:1055e4006425000064250000640a000000470000f0
:1055f400797200006f2000004f660000667300009f
:105604003a200000252e0000326600002c25000000
:105614002e320000662c0000252e000032660000a9
:1056240020530000656e0000733a0000202500003e
:105634002e320000662c0000252e00003266000089
:105644002c2500002e32000066200000496e000068
:10565400763a0000256400002564000025640000fb
:105664000a000000616e0000257500002041000062
:105674003d000000253000003475000020000000cb
:10568400206100006463000041760000673d000073
:1056940025230000362e000031660000202800007b
:1056a40025230000362e000031660000206d000026
:1056b40056290000200a0000006100006e25000049
:1056c40075200000423d00000020000061640000dd
:1056d400634d0000696e00003d2500007520000048
:1056e40061640000634d0000617800003d25000006
:1056f4007520000064690000663d00002575000007
:105704000a0000000a000000252e00003166000097
:105714002c250000642c0000004400006562000099
:10572400756700002031000000440000656200003d
:10573400756700002032000000440000656200002c
:10574400756700002033000000440000656200001b
:10575400756700002034000000440000656200000a
:105764007567000020350000004900006e740000d9
:10577400657200007275000070740000202500003e
:10578400782c000000250000660000007d2c00003d
:105794000049000032430000202000005265000050
:1057a4006164000020500000726f00006365000017
:1057b40064750000726500002057000072690000e3
:1057c4007465000020450000727200002061000032
:1057d40064640000202500006300000049320000da
:1057e4004320000057720000697400006520000027
:1057f400507200006f630000656400007572000061
:105804006520000045720000722000006164000001
:105814006420000025780000004900006e69000043
:105824007420000049540000473300003230000067
:10583400300000005561000072740000204900002f
:105844006e690000742000004f6b000000690000c6
:1058540032630000204900006e69000074200000db
:105864004f6b000000490000544700003332000031
:1058740030300000204f00006b0000004144000065
:10588400584c0000204900006e690000742000009c
:105894004f6b0000004900006e6900007420000096
:1058a40047790000726f0000006d00006f74000003
:1058b4006f720000206900006e690000742000000f
:1058c4006f6b0000005300007461000072740000ec
:1058d400204c00006f6f0000700000005363000054
:1058e400616e0000662000000025000073000000c7
:1058f4002d2d00002d2d00002d2d00002d2d00003c
:105904002d2d00002d2d00002d2d00002d2d00002b
:1059140000200000257300002d2d000025690000e3
:0c59240020250000690a0000200000009f
:020000040000fa
:105930000000fa0060012000303a8800213a80001f
:10594000f0f32f0000806000203a8800213a8000a8
:1059500000fe2f00008060000000a000203a8800b8
:1059600040a7a9003200200080072000a1092000e4
:10597000337420008049780081497800824978009a
:105980001200200060042000710520002374200014
:105990008049780081497800824978000000000041
:1059a000113a800000002700808060000000230082
:1059b000808f5000faff3a0000a82100610020000b
:1059c000a8ea07000080fa00000006000400fa00c0
:1059d000008fbe001e01be001e00be00abeb070024
:1059e0000080fa00000006000c00fa00881f780012
:1059f000008fbe00220798003307980044079800e4
:105a00005507980018c0b3001e01be004e0090005c
:105a1000de009000d1eb07008000eb00810f50000a
:105a2000010035000044eb000040eb00804f5400c3
:105a3000030032004e009000de00900001003700ad
:105a40001e00be0018c0b3002e019000be019000e1
:105a5000c2eb07008000eb00810f50000100350011
:105a60000044eb000040eb00804f54000300320084
